{
  "contractName": "Referral",
  "abi": [
    {
      "constant": true,
      "inputs": [],
      "name": "ReceivingCountry",
      "outputs": [
        {
          "name": "",
          "type": "string"
        }
      ],
      "payable": false,
      "stateMutability": "view",
      "type": "function"
    },
    {
      "constant": true,
      "inputs": [],
      "name": "ReferringCountry",
      "outputs": [
        {
          "name": "",
          "type": "string"
        }
      ],
      "payable": false,
      "stateMutability": "view",
      "type": "function"
    },
    {
      "constant": true,
      "inputs": [],
      "name": "ReferringOffice",
      "outputs": [
        {
          "name": "",
          "type": "string"
        }
      ],
      "payable": false,
      "stateMutability": "view",
      "type": "function"
    },
    {
      "constant": true,
      "inputs": [],
      "name": "DateClosed",
      "outputs": [
        {
          "name": "",
          "type": "uint256"
        }
      ],
      "payable": false,
      "stateMutability": "view",
      "type": "function"
    },
    {
      "constant": true,
      "inputs": [],
      "name": "DateCreated",
      "outputs": [
        {
          "name": "",
          "type": "uint256"
        }
      ],
      "payable": false,
      "stateMutability": "view",
      "type": "function"
    },
    {
      "constant": true,
      "inputs": [],
      "name": "EstimatedValue",
      "outputs": [
        {
          "name": "",
          "type": "uint256"
        }
      ],
      "payable": false,
      "stateMutability": "view",
      "type": "function"
    },
    {
      "constant": true,
      "inputs": [],
      "name": "ServiceLine",
      "outputs": [
        {
          "name": "",
          "type": "string"
        }
      ],
      "payable": false,
      "stateMutability": "view",
      "type": "function"
    },
    {
      "constant": true,
      "inputs": [],
      "name": "ReceivingOffice",
      "outputs": [
        {
          "name": "",
          "type": "string"
        }
      ],
      "payable": false,
      "stateMutability": "view",
      "type": "function"
    },
    {
      "constant": true,
      "inputs": [],
      "name": "ActualAmount",
      "outputs": [
        {
          "name": "",
          "type": "uint256"
        }
      ],
      "payable": false,
      "stateMutability": "view",
      "type": "function"
    },
    {
      "constant": true,
      "inputs": [],
      "name": "Engagement",
      "outputs": [
        {
          "name": "",
          "type": "string"
        }
      ],
      "payable": false,
      "stateMutability": "view",
      "type": "function"
    },
    {
      "constant": true,
      "inputs": [],
      "name": "Client",
      "outputs": [
        {
          "name": "",
          "type": "string"
        }
      ],
      "payable": false,
      "stateMutability": "view",
      "type": "function"
    },
    {
      "constant": true,
      "inputs": [],
      "name": "Comment",
      "outputs": [
        {
          "name": "",
          "type": "string"
        }
      ],
      "payable": false,
      "stateMutability": "view",
      "type": "function"
    },
    {
      "constant": true,
      "inputs": [],
      "name": "State",
      "outputs": [
        {
          "name": "",
          "type": "uint8"
        }
      ],
      "payable": false,
      "stateMutability": "view",
      "type": "function"
    },
    {
      "inputs": [
        {
          "name": "client",
          "type": "string"
        },
        {
          "name": "engagement",
          "type": "string"
        },
        {
          "name": "referringOffice",
          "type": "string"
        },
        {
          "name": "referringCountry",
          "type": "string"
        },
        {
          "name": "receivingOffice",
          "type": "string"
        },
        {
          "name": "receivingCountry",
          "type": "string"
        },
        {
          "name": "estimatedValue",
          "type": "uint256"
        },
        {
          "name": "serviceLine",
          "type": "string"
        },
        {
          "name": "dateCreated",
          "type": "uint256"
        }
      ],
      "payable": false,
      "stateMutability": "nonpayable",
      "type": "constructor"
    },
    {
      "anonymous": false,
      "inputs": [
        {
          "indexed": false,
          "name": "contractType",
          "type": "string"
        },
        {
          "indexed": false,
          "name": "originatingAddress",
          "type": "address"
        }
      ],
      "name": "AppBuilderContractCreated",
      "type": "event"
    },
    {
      "anonymous": false,
      "inputs": [
        {
          "indexed": false,
          "name": "contractType",
          "type": "string"
        },
        {
          "indexed": false,
          "name": "action",
          "type": "string"
        },
        {
          "indexed": false,
          "name": "originatingAddress",
          "type": "address"
        }
      ],
      "name": "AppBuilderContractUpdated",
      "type": "event"
    },
    {
      "constant": false,
      "inputs": [
        {
          "name": "_actualValue",
          "type": "uint256"
        }
      ],
      "name": "ReceiverApproves",
      "outputs": [],
      "payable": false,
      "stateMutability": "nonpayable",
      "type": "function"
    },
    {
      "constant": false,
      "inputs": [],
      "name": "ReceiverRejects",
      "outputs": [],
      "payable": false,
      "stateMutability": "nonpayable",
      "type": "function"
    }
  ],
  "bytecode": "0x606060405234156200001057600080fd5b6040516200125a3803806200125a833981016040528080518201919060200180518201919060200180518201919060200180518201919060200180518201919060200180518201919060200180519060200190919080518201919060200180519060200190919050506040805190810160405280600881526020017f526566657272616c0000000000000000000000000000000000000000000000008152508060009080519060200190620000c7929190620002cb565b505060018060006101000a81548160ff02191690836005811115620000e857fe5b0217905550886002908051906020019062000105929190620002cb565b5087600390805190602001906200011e929190620002cb565b50866004908051906020019062000137929190620002cb565b50856005908051906020019062000150929190620002cb565b50846006908051906020019062000169929190620002cb565b50836007908051906020019062000182929190620002cb565b50826008819055508160099080519060200190620001a2929190620002cb565b5042600c81905550620001c8620001d76401000000000262000db4176401000000009004565b5050505050505050506200037a565b7f1fb29edfe46190dcc9748fd38800228ac494100887d36867a5c65678992865f860003360405180806020018373ffffffffffffffffffffffffffffffffffffffff1673ffffffffffffffffffffffffffffffffffffffff168152602001828103825284818154600181600116156101000203166002900481526020019150805460018160011615610100020316600290048015620002ba5780601f106200028e57610100808354040283529160200191620002ba565b820191906000526020600020905b8154815290600101906020018083116200029c57829003601f168201915b5050935050505060405180910390a1565b828054600181600116156101000203166002900490600052602060002090601f016020900481019282601f106200030e57805160ff19168380011785556200033f565b828001600101855582156200033f579182015b828111156200033e57825182559160200191906001019062000321565b5b5090506200034e919062000352565b5090565b6200037791905b808211156200037357600081600090555060010162000359565b5090565b90565b610ed0806200038a6000396000f3006060604052600436106100db576000357c0100000000000000000000000000000000000000000000000000000000900463ffffffff16806308ee33ac146100e05780630a5dec051461016e5780632cb036d0146101fc578063316b10cf1461028a57806341f72d38146102b357806346ac0e79146102dc5780634f19bd1d1461030557806357c5d5551461032857806369ae5f8b146103b65780637278fd2c146104445780637d078e961461045957806381c1958e146104825780638eaa9c9114610510578063e8056b2e1461059e578063f1b6dccd1461062c575b600080fd5b34156100eb57600080fd5b6100f3610663565b6040518080602001828103825283818151815260200191508051906020019080838360005b83811015610133578082015181840152602081019050610118565b50505050905090810190601f1680156101605780820380516001836020036101000a031916815260200191505b509250505060405180910390f35b341561017957600080fd5b610181610701565b6040518080602001828103825283818151815260200191508051906020019080838360005b838110156101c15780820151818401526020810190506101a6565b50505050905090810190601f1680156101ee5780820380516001836020036101000a031916815260200191505b509250505060405180910390f35b341561020757600080fd5b61020f61079f565b6040518080602001828103825283818151815260200191508051906020019080838360005b8381101561024f578082015181840152602081019050610234565b50505050905090810190601f16801561027c5780820380516001836020036101000a031916815260200191505b509250505060405180910390f35b341561029557600080fd5b61029d61083d565b6040518082815260200191505060405180910390f35b34156102be57600080fd5b6102c6610843565b6040518082815260200191505060405180910390f35b34156102e757600080fd5b6102ef610849565b6040518082815260200191505060405180910390f35b341561031057600080fd5b610326600480803590602001909190505061084f565b005b341561033357600080fd5b61033b6108bb565b6040518080602001828103825283818151815260200191508051906020019080838360005b8381101561037b578082015181840152602081019050610360565b50505050905090810190601f1680156103a85780820380516001836020036101000a031916815260200191505b509250505060405180910390f35b34156103c157600080fd5b6103c9610959565b6040518080602001828103825283818151815260200191508051906020019080838360005b838110156104095780820151818401526020810190506103ee565b50505050905090810190601f1680156104365780820380516001836020036101000a031916815260200191505b509250505060405180910390f35b341561044f57600080fd5b6104576109f7565b005b341561046457600080fd5b61046c610a63565b6040518082815260200191505060405180910390f35b341561048d57600080fd5b610495610a69565b6040518080602001828103825283818151815260200191508051906020019080838360005b838110156104d55780820151818401526020810190506104ba565b50505050905090810190601f1680156105025780820380516001836020036101000a031916815260200191505b509250505060405180910390f35b341561051b57600080fd5b610523610b07565b6040518080602001828103825283818151815260200191508051906020019080838360005b83811015610563578082015181840152602081019050610548565b50505050905090810190601f1680156105905780820380516001836020036101000a031916815260200191505b509250505060405180910390f35b34156105a957600080fd5b6105b1610ba5565b6040518080602001828103825283818151815260200191508051906020019080838360005b838110156105f15780820151818401526020810190506105d6565b50505050905090810190601f16801561061e5780820380516001836020036101000a031916815260200191505b509250505060405180910390f35b341561063757600080fd5b61063f610c43565b6040518082600581111561064f57fe5b60ff16815260200191505060405180910390f35b60078054600181600116156101000203166002900480601f0160208091040260200160405190810160405280929190818152602001828054600181600116156101000203166002900480156106f95780601f106106ce576101008083540402835291602001916106f9565b820191906000526020600020905b8154815290600101906020018083116106dc57829003601f168201915b505050505081565b60058054600181600116156101000203166002900480601f0160208091040260200160405190810160405280929190818152602001828054600181600116156101000203166002900480156107975780601f1061076c57610100808354040283529160200191610797565b820191906000526020600020905b81548152906001019060200180831161077a57829003601f168201915b505050505081565b60048054600181600116156101000203166002900480601f0160208091040260200160405190810160405280929190818152602001828054600181600116156101000203166002900480156108355780601f1061080a57610100808354040283529160200191610835565b820191906000526020600020905b81548152906001019060200180831161081857829003601f168201915b505050505081565b600d5481565b600c5481565b60085481565b80600a819055506004600160006101000a81548160ff0219169083600581111561087557fe5b02179055506108b86040805190810160405280601081526020017f5265636569766572417070726f76657300000000000000000000000000000000815250610c56565b50565b60098054600181600116156101000203166002900480601f0160208091040260200160405190810160405280929190818152602001828054600181600116156101000203166002900480156109515780601f1061092657610100808354040283529160200191610951565b820191906000526020600020905b81548152906001019060200180831161093457829003601f168201915b505050505081565b60068054600181600116156101000203166002900480601f0160208091040260200160405190810160405280929190818152602001828054600181600116156101000203166002900480156109ef5780601f106109c4576101008083540402835291602001916109ef565b820191906000526020600020905b8154815290600101906020018083116109d257829003601f168201915b505050505081565b6005600160006101000a81548160ff02191690836005811115610a1657fe5b02179055506000600a81905550610a616040805190810160405280600f81526020017f526563656976657252656a656374730000000000000000000000000000000000815250610c56565b565b600a5481565b60038054600181600116156101000203166002900480601f016020809104026020016040519081016040528092919081815260200182805460018160011615610100020316600290048015610aff5780601f10610ad457610100808354040283529160200191610aff565b820191906000526020600020905b815481529060010190602001808311610ae257829003601f168201915b505050505081565b60028054600181600116156101000203166002900480601f016020809104026020016040519081016040528092919081815260200182805460018160011615610100020316600290048015610b9d5780601f10610b7257610100808354040283529160200191610b9d565b820191906000526020600020905b815481529060010190602001808311610b8057829003601f168201915b505050505081565b600b8054600181600116156101000203166002900480601f016020809104026020016040519081016040528092919081815260200182805460018160011615610100020316600290048015610c3b5780601f10610c1057610100808354040283529160200191610c3b565b820191906000526020600020905b815481529060010190602001808311610c1e57829003601f168201915b505050505081565b600160009054906101000a900460ff1681565b7f27ff061ca634a5669c65c732b621296cf6f41b2abfb22a3ab881e1d6ac3dbf2a600082336040518080602001806020018473ffffffffffffffffffffffffffffffffffffffff1673ffffffffffffffffffffffffffffffffffffffff168152602001838103835286818154600181600116156101000203166002900481526020019150805460018160011615610100020316600290048015610d3a5780601f10610d0f57610100808354040283529160200191610d3a565b820191906000526020600020905b815481529060010190602001808311610d1d57829003601f168201915b5050838103825285818151815260200191508051906020019080838360005b83811015610d74578082015181840152602081019050610d59565b50505050905090810190601f168015610da15780820380516001836020036101000a031916815260200191505b509550505050505060405180910390a150565b7f1fb29edfe46190dcc9748fd38800228ac494100887d36867a5c65678992865f860003360405180806020018373ffffffffffffffffffffffffffffffffffffffff1673ffffffffffffffffffffffffffffffffffffffff168152602001828103825284818154600181600116156101000203166002900481526020019150805460018160011615610100020316600290048015610e935780601f10610e6857610100808354040283529160200191610e93565b820191906000526020600020905b815481529060010190602001808311610e7657829003601f168201915b5050935050505060405180910390a15600a165627a7a72305820b4b67356c0e680ede5cd250cfa5e2e20afb4f355d41344d7f10c2d25d3f0ec3a0029",
  "source": "pragma solidity ^0.4.18;\r\n\r\ncontract AppBuilderBase {\r\n\tevent AppBuilderContractCreated(string contractType, address originatingAddress);\r\n\tevent AppBuilderContractUpdated(string contractType, string action, address originatingAddress);\r\n\r\n\tstring internal ContractType;\r\n\r\n\tfunction AppBuilderBase(string contractType) internal {\r\n\t\tContractType = contractType;\r\n\t}\r\n\r\n\tfunction ContractCreated() internal {\r\n\t\tAppBuilderContractCreated(ContractType, msg.sender);\r\n\t}\r\n\r\n\tfunction ContractUpdated(string action) internal {\r\n\t\tAppBuilderContractUpdated(ContractType, action, msg.sender);\r\n\t}\r\n}\r\n\r\ncontract Referral is AppBuilderBase(\"Referral\") {\r\n\r\n\tenum ContractStates { ReferrerCreate, WorkInProgress, ReceiverApproves, ReceiverRejects, Approved, Rejected }\r\n\r\n\tContractStates public State;    // Contract state\r\n\tstring public Client;    // The client that is being referred\r\n\tstring public Engagement;    // The name of the client engagement\r\n\tstring public ReferringOffice;    // The office of the referrer\r\n\tstring public ReferringCountry;    // The country of the referrer\r\n\tstring public ReceivingOffice;    // The office of the receiver\r\n\tstring public ReceivingCountry;    // The country of the receiver\r\n\tuint public EstimatedValue;    // The estimated value as perceived by the referrer\r\n\tstring public ServiceLine;    // The line of services (tax, audit, etc) the client is being referred for\r\n\tuint public ActualAmount;    // The actual amount of the fees the receiver was able to generate from the client\r\n\tstring public Comment;    // Comments\r\n\tuint public DateCreated;    // The date the referral was entered\r\n\tuint public DateClosed;    // The date the referral was closed\r\n\r\n\tfunction Referral(string client, string engagement, string referringOffice, string referringCountry, string receivingOffice, string receivingCountry, uint estimatedValue, string serviceLine, uint dateCreated) {\r\n\t\t// Referrer = msg.sender;\r\n\t\tState = ContractStates.WorkInProgress;\r\n\t\tClient = client;\r\n\t\tEngagement = engagement;\r\n\t\tReferringOffice = referringOffice;\r\n\t\tReferringCountry = referringCountry;\r\n\t\tReceivingOffice = receivingOffice;\r\n\t\tReceivingCountry = receivingCountry;\r\n\t\tEstimatedValue = estimatedValue;\r\n\t\tServiceLine = serviceLine;\r\n\t\tDateCreated = block.timestamp; \r\n\r\n\t\tContractCreated();\r\n\t}\r\n\tfunction ReceiverApproves(uint _actualValue) {\r\n\t\t// if (Receiver != msg.sender || State != ContractStates.ReceiverApproves) {\r\n\t\t// \trevert();\r\n\t\t// } ???? \r\n\t\t//Please Fill in the remaining Business Logic\r\n\r\n        // should accept actual value - \r\n        ActualAmount = _actualValue; \r\n        State = ContractStates.Approved; \r\n\r\n\t\tContractUpdated(\"ReceiverApproves\");\r\n\t}\r\n\tfunction ReceiverRejects() {\r\n\t\t// if (Receiver != msg.sender || State != ContractStates.ReceiverRejects) {\r\n\t\t// \trevert();\r\n\t\t// }\r\n\t\t//Please Fill in the remaining Business Logic\r\n        State = ContractStates.Rejected; \r\n        ActualAmount = 0; \r\n\t\tContractUpdated(\"ReceiverRejects\");\r\n\t}\r\n}\r\n\r\n",
  "sourcePath": "C:\\Users\\tireilly\\GitHub\\python-warmup\\truff-n-stuff\\contracts\\Referral.sol",
  "compiler": {
    "name": "solc",
    "version": "0.4.19+commit.c4cbbb05.Emscripten.clang"
  },
  "schemaVersion": "2.0.0",
  "updatedAt": "2018-04-03T16:53:28.558Z"
}