{
  "contractName": "ReferralFactory",
  "abi": [
    {
      "constant": true,
      "inputs": [
        {
          "name": "",
          "type": "uint256"
        }
      ],
      "name": "referralContracts",
      "outputs": [
        {
          "name": "",
          "type": "address"
        }
      ],
      "payable": false,
      "stateMutability": "view",
      "type": "function"
    },
    {
      "constant": false,
      "inputs": [
        {
          "name": "client",
          "type": "string"
        },
        {
          "name": "engagement",
          "type": "string"
        },
        {
          "name": "referringOffice",
          "type": "string"
        },
        {
          "name": "referringCountry",
          "type": "string"
        },
        {
          "name": "receivingOffice",
          "type": "string"
        },
        {
          "name": "receivingCountry",
          "type": "string"
        },
        {
          "name": "estimatedValue",
          "type": "uint256"
        },
        {
          "name": "serviceLine",
          "type": "string"
        },
        {
          "name": "dateCreated",
          "type": "uint256"
        }
      ],
      "name": "createContract",
      "outputs": [],
      "payable": false,
      "stateMutability": "nonpayable",
      "type": "function"
    },
    {
      "constant": true,
      "inputs": [
        {
          "name": "index",
          "type": "uint256"
        }
      ],
      "name": "getContract",
      "outputs": [
        {
          "name": "_addr",
          "type": "address"
        }
      ],
      "payable": false,
      "stateMutability": "view",
      "type": "function"
    },
    {
      "constant": true,
      "inputs": [],
      "name": "getContracts",
      "outputs": [
        {
          "name": "_addr",
          "type": "address[]"
        }
      ],
      "payable": false,
      "stateMutability": "view",
      "type": "function"
    },
    {
      "constant": true,
      "inputs": [],
      "name": "getNumberOfContracts",
      "outputs": [
        {
          "name": "_numberOfContract",
          "type": "uint256"
        }
      ],
      "payable": false,
      "stateMutability": "view",
      "type": "function"
    }
  ],
  "bytecode": "0x6060604052341561000f57600080fd5b611c1f8061001e6000396000f30060606040526004361062000073576000357c0100000000000000000000000000000000000000000000000000000000900463ffffffff168063485ee05e146200007857806358e58db414620000a65780636ebc8c8614620000cd5780638fb7ccf0146200010a578063c3a2a93a1462000147575b600080fd5b34156200008457600080fd5b6200008e62000175565b6040516200009d919062000845565b60405180910390f35b3415620000b257600080fd5b620000cb6004620000c590369062000463565b6200017f565b005b3415620000d957600080fd5b620000f26004620000ec9036906200063b565b62000244565b60405162000101919062000734565b60405180910390f35b34156200011657600080fd5b6200012f6004620001299036906200063b565b62000288565b6040516200013e919062000734565b60405180910390f35b34156200015357600080fd5b6200015d620002c8565b6040516200016c919062000751565b60405180910390f35b6000600154905090565b60008989898989898989896200019462000360565b620001a89998979695949392919062000775565b604051809103906000f0801515620001bf57600080fd5b905060008054806001018281620001d7919062000371565b9160005260206000209001600083909190916101000a81548173ffffffffffffffffffffffffffffffffffffffff021916908373ffffffffffffffffffffffffffffffffffffffff1602179055505060016000815480929190600101919050555050505050505050505050565b600080828154811015156200025557fe5b906000526020600020900160009054906101000a900473ffffffffffffffffffffffffffffffffffffffff169050919050565b6000818154811015156200029857fe5b90600052602060002090016000915054906101000a900473ffffffffffffffffffffffffffffffffffffffff1681565b620002d2620003a0565b60008054806020026020016040519081016040528092919081815260200182805480156200035657602002820191906000526020600020905b8160009054906101000a900473ffffffffffffffffffffffffffffffffffffffff1673ffffffffffffffffffffffffffffffffffffffff16815260200190600101908083116200030b575b5050505050905090565b60405161125a806200098c83390190565b8154818355818115116200039b578183600052602060002091820191016200039a9190620003b4565b5b505050565b602060405190810160405280600081525090565b620003d991905b80821115620003d5576000816000905550600101620003bb565b5090565b90565b600082601f83011260008114620003f357620003f8565b600080fd5b508135620004106200040a826200089a565b62000862565b91508082526020830160208301858383011160018114620004315762000436565b600080fd5b506200044483828462000935565b50505092915050565b60006200045b82356200092b565b905092915050565b60008060008060008060008060006101208a8c03126001811462000487576200048c565b600080fd5b5060008a013567ffffffffffffffff811160018114620004ac57620004b1565b600080fd5b50620004c08c828d01620003dc565b99505060208a013567ffffffffffffffff811160018114620004e257620004e7565b600080fd5b50620004f68c828d01620003dc565b98505060408a013567ffffffffffffffff81116001811462000518576200051d565b600080fd5b506200052c8c828d01620003dc565b97505060608a013567ffffffffffffffff8111600181146200054e5762000553565b600080fd5b50620005628c828d01620003dc565b96505060808a013567ffffffffffffffff811160018114620005845762000589565b600080fd5b50620005988c828d01620003dc565b95505060a08a013567ffffffffffffffff811160018114620005ba57620005bf565b600080fd5b50620005ce8c828d01620003dc565b94505060c0620005e18c828d016200044d565b93505060e08a013567ffffffffffffffff811160018114620006035762000608565b600080fd5b50620006178c828d01620003dc565b9250506101006200062b8c828d016200044d565b9150509295985092959850929598565b600060208284031260018114620006525762000657565b600080fd5b50600062000668848285016200044d565b91505092915050565b6200067c8162000901565b82525050565b60006200068f82620008de565b808452602084019350620006a383620008d1565b60005b82811015620006db57620006bc86835162000671565b620006c782620008f4565b9150602086019550600181019050620006a6565b50849250505092915050565b6000620006f482620008e9565b8084526200070a81602086016020860162000944565b62000715816200097a565b602085010191505092915050565b6200072e8162000921565b82525050565b60006020820190506200074b600083018462000671565b92915050565b600060208201905081810360008301526200076d818462000682565b905092915050565b600061012082019050818103600083015262000792818c620006e7565b90508181036020830152620007a8818b620006e7565b90508181036040830152620007be818a620006e7565b90508181036060830152620007d48189620006e7565b90508181036080830152620007ea8188620006e7565b905081810360a0830152620008008187620006e7565b90506200081160c083018662000723565b81810360e0830152620008258185620006e7565b90506200083761010083018462000723565b9a9950505050505050505050565b60006020820190506200085c600083018462000723565b92915050565b6000604051905081810181811067ffffffffffffffff821117600181146200088a576200088f565b600080fd5b508060405250919050565b600067ffffffffffffffff821160018114620008b657620008bb565b600080fd5b50601f19601f8301169050602081019050919050565b6000602082019050919050565b600081519050919050565b600081519050919050565b6000602082019050919050565b600073ffffffffffffffffffffffffffffffffffffffff82169050919050565b6000819050919050565b6000819050919050565b82818337600083830152505050565b60005b838110156200096457808201518184015260208101905062000947565b8381111562000974576000848401525b50505050565b6000601f19601f83011690509190505600606060405234156200001057600080fd5b6040516200125a3803806200125a833981016040528080518201919060200180518201919060200180518201919060200180518201919060200180518201919060200180518201919060200180519060200190919080518201919060200180519060200190919050506040805190810160405280600881526020017f526566657272616c0000000000000000000000000000000000000000000000008152508060009080519060200190620000c7929190620002cb565b505060018060006101000a81548160ff02191690836005811115620000e857fe5b0217905550886002908051906020019062000105929190620002cb565b5087600390805190602001906200011e929190620002cb565b50866004908051906020019062000137929190620002cb565b50856005908051906020019062000150929190620002cb565b50846006908051906020019062000169929190620002cb565b50836007908051906020019062000182929190620002cb565b50826008819055508160099080519060200190620001a2929190620002cb565b5042600c81905550620001c8620001d76401000000000262000db4176401000000009004565b5050505050505050506200037a565b7f1fb29edfe46190dcc9748fd38800228ac494100887d36867a5c65678992865f860003360405180806020018373ffffffffffffffffffffffffffffffffffffffff1673ffffffffffffffffffffffffffffffffffffffff168152602001828103825284818154600181600116156101000203166002900481526020019150805460018160011615610100020316600290048015620002ba5780601f106200028e57610100808354040283529160200191620002ba565b820191906000526020600020905b8154815290600101906020018083116200029c57829003601f168201915b5050935050505060405180910390a1565b828054600181600116156101000203166002900490600052602060002090601f016020900481019282601f106200030e57805160ff19168380011785556200033f565b828001600101855582156200033f579182015b828111156200033e57825182559160200191906001019062000321565b5b5090506200034e919062000352565b5090565b6200037791905b808211156200037357600081600090555060010162000359565b5090565b90565b610ed0806200038a6000396000f3006060604052600436106100db576000357c0100000000000000000000000000000000000000000000000000000000900463ffffffff16806308ee33ac146100e05780630a5dec051461016e5780632cb036d0146101fc578063316b10cf1461028a57806341f72d38146102b357806346ac0e79146102dc5780634f19bd1d1461030557806357c5d5551461032857806369ae5f8b146103b65780637278fd2c146104445780637d078e961461045957806381c1958e146104825780638eaa9c9114610510578063e8056b2e1461059e578063f1b6dccd1461062c575b600080fd5b34156100eb57600080fd5b6100f3610663565b6040518080602001828103825283818151815260200191508051906020019080838360005b83811015610133578082015181840152602081019050610118565b50505050905090810190601f1680156101605780820380516001836020036101000a031916815260200191505b509250505060405180910390f35b341561017957600080fd5b610181610701565b6040518080602001828103825283818151815260200191508051906020019080838360005b838110156101c15780820151818401526020810190506101a6565b50505050905090810190601f1680156101ee5780820380516001836020036101000a031916815260200191505b509250505060405180910390f35b341561020757600080fd5b61020f61079f565b6040518080602001828103825283818151815260200191508051906020019080838360005b8381101561024f578082015181840152602081019050610234565b50505050905090810190601f16801561027c5780820380516001836020036101000a031916815260200191505b509250505060405180910390f35b341561029557600080fd5b61029d61083d565b6040518082815260200191505060405180910390f35b34156102be57600080fd5b6102c6610843565b6040518082815260200191505060405180910390f35b34156102e757600080fd5b6102ef610849565b6040518082815260200191505060405180910390f35b341561031057600080fd5b610326600480803590602001909190505061084f565b005b341561033357600080fd5b61033b6108bb565b6040518080602001828103825283818151815260200191508051906020019080838360005b8381101561037b578082015181840152602081019050610360565b50505050905090810190601f1680156103a85780820380516001836020036101000a031916815260200191505b509250505060405180910390f35b34156103c157600080fd5b6103c9610959565b6040518080602001828103825283818151815260200191508051906020019080838360005b838110156104095780820151818401526020810190506103ee565b50505050905090810190601f1680156104365780820380516001836020036101000a031916815260200191505b509250505060405180910390f35b341561044f57600080fd5b6104576109f7565b005b341561046457600080fd5b61046c610a63565b6040518082815260200191505060405180910390f35b341561048d57600080fd5b610495610a69565b6040518080602001828103825283818151815260200191508051906020019080838360005b838110156104d55780820151818401526020810190506104ba565b50505050905090810190601f1680156105025780820380516001836020036101000a031916815260200191505b509250505060405180910390f35b341561051b57600080fd5b610523610b07565b6040518080602001828103825283818151815260200191508051906020019080838360005b83811015610563578082015181840152602081019050610548565b50505050905090810190601f1680156105905780820380516001836020036101000a031916815260200191505b509250505060405180910390f35b34156105a957600080fd5b6105b1610ba5565b6040518080602001828103825283818151815260200191508051906020019080838360005b838110156105f15780820151818401526020810190506105d6565b50505050905090810190601f16801561061e5780820380516001836020036101000a031916815260200191505b509250505060405180910390f35b341561063757600080fd5b61063f610c43565b6040518082600581111561064f57fe5b60ff16815260200191505060405180910390f35b60078054600181600116156101000203166002900480601f0160208091040260200160405190810160405280929190818152602001828054600181600116156101000203166002900480156106f95780601f106106ce576101008083540402835291602001916106f9565b820191906000526020600020905b8154815290600101906020018083116106dc57829003601f168201915b505050505081565b60058054600181600116156101000203166002900480601f0160208091040260200160405190810160405280929190818152602001828054600181600116156101000203166002900480156107975780601f1061076c57610100808354040283529160200191610797565b820191906000526020600020905b81548152906001019060200180831161077a57829003601f168201915b505050505081565b60048054600181600116156101000203166002900480601f0160208091040260200160405190810160405280929190818152602001828054600181600116156101000203166002900480156108355780601f1061080a57610100808354040283529160200191610835565b820191906000526020600020905b81548152906001019060200180831161081857829003601f168201915b505050505081565b600d5481565b600c5481565b60085481565b80600a819055506004600160006101000a81548160ff0219169083600581111561087557fe5b02179055506108b86040805190810160405280601081526020017f5265636569766572417070726f76657300000000000000000000000000000000815250610c56565b50565b60098054600181600116156101000203166002900480601f0160208091040260200160405190810160405280929190818152602001828054600181600116156101000203166002900480156109515780601f1061092657610100808354040283529160200191610951565b820191906000526020600020905b81548152906001019060200180831161093457829003601f168201915b505050505081565b60068054600181600116156101000203166002900480601f0160208091040260200160405190810160405280929190818152602001828054600181600116156101000203166002900480156109ef5780601f106109c4576101008083540402835291602001916109ef565b820191906000526020600020905b8154815290600101906020018083116109d257829003601f168201915b505050505081565b6005600160006101000a81548160ff02191690836005811115610a1657fe5b02179055506000600a81905550610a616040805190810160405280600f81526020017f526563656976657252656a656374730000000000000000000000000000000000815250610c56565b565b600a5481565b60038054600181600116156101000203166002900480601f016020809104026020016040519081016040528092919081815260200182805460018160011615610100020316600290048015610aff5780601f10610ad457610100808354040283529160200191610aff565b820191906000526020600020905b815481529060010190602001808311610ae257829003601f168201915b505050505081565b60028054600181600116156101000203166002900480601f016020809104026020016040519081016040528092919081815260200182805460018160011615610100020316600290048015610b9d5780601f10610b7257610100808354040283529160200191610b9d565b820191906000526020600020905b815481529060010190602001808311610b8057829003601f168201915b505050505081565b600b8054600181600116156101000203166002900480601f016020809104026020016040519081016040528092919081815260200182805460018160011615610100020316600290048015610c3b5780601f10610c1057610100808354040283529160200191610c3b565b820191906000526020600020905b815481529060010190602001808311610c1e57829003601f168201915b505050505081565b600160009054906101000a900460ff1681565b7f27ff061ca634a5669c65c732b621296cf6f41b2abfb22a3ab881e1d6ac3dbf2a600082336040518080602001806020018473ffffffffffffffffffffffffffffffffffffffff1673ffffffffffffffffffffffffffffffffffffffff168152602001838103835286818154600181600116156101000203166002900481526020019150805460018160011615610100020316600290048015610d3a5780601f10610d0f57610100808354040283529160200191610d3a565b820191906000526020600020905b815481529060010190602001808311610d1d57829003601f168201915b5050838103825285818151815260200191508051906020019080838360005b83811015610d74578082015181840152602081019050610d59565b50505050905090810190601f168015610da15780820380516001836020036101000a031916815260200191505b509550505050505060405180910390a150565b7f1fb29edfe46190dcc9748fd38800228ac494100887d36867a5c65678992865f860003360405180806020018373ffffffffffffffffffffffffffffffffffffffff1673ffffffffffffffffffffffffffffffffffffffff168152602001828103825284818154600181600116156101000203166002900481526020019150805460018160011615610100020316600290048015610e935780601f10610e6857610100808354040283529160200191610e93565b820191906000526020600020905b815481529060010190602001808311610e7657829003601f168201915b5050935050505060405180910390a15600a165627a7a72305820b4b67356c0e680ede5cd250cfa5e2e20afb4f355d41344d7f10c2d25d3f0ec3a0029a265627a7a723058200f8cfd5e1b3f8aa396819d73bae37bf87c503bf3db07a9ee206bc400d43b88f86c6578706572696d656e74616cf50037",
  "source": "// import \"./Referral.sol\"; \r\n// pragma experimental ABIEncoderV2;\r\n\r\n// // Trying a factory pattern https://ethereum.stackexchange.com/questions/1415/solidity-create-contract-from-contract\r\n// // Also looking for other storage patterns: https://ethereum.stackexchange.com/questions/13167/are-there-well-solved-and-simple-storage-patterns-for-solidity \r\n\r\n\r\n// contract ReferralFactory {\r\n//     address[] referralContracts;\r\n\r\n//     struct ReferralStruct {\r\n//         string client;\r\n//         string engagement;\r\n//         string referringOffice; \r\n//         string referringCountry; \r\n//         string receivingOffice; \r\n//         string receivingCountry; \r\n//         uint estimatedValue; \r\n//         string serviceLine;\r\n//         uint dateCreated;\r\n//     }\r\n\r\n//     function createContract (ReferralStruct referral) public {\r\n//         address newContract = new Referral(referral.client, referral.engagement, referral.referringOffice, referral.referringCountry, referral.receivingOffice, referral.receivingCountry, referral.estimatedValue, referral.serviceLine, referral.dateCreated);\r\n//         referralContracts.push(newContract);\r\n//     } \r\n// }\r\n\r\nimport \"./Referral.sol\"; \r\npragma solidity ^0.4.18;\r\npragma experimental ABIEncoderV2; // DON'T GO LIVE WITH THIS! \r\n\r\n\r\n// Trying a factory pattern https://ethereum.stackexchange.com/questions/1415/solidity-create-contract-from-contract\r\n// Also looking for other storage patterns: https://ethereum.stackexchange.com/questions/13167/are-there-well-solved-and-simple-storage-patterns-for-solidity \r\n\r\n\r\ncontract ReferralFactory {\r\n    address[] public referralContracts;\r\n    uint private contractCount; \r\n\r\n    function createContract (\r\n        string client,\r\n        string engagement,\r\n        string referringOffice, \r\n        string referringCountry, \r\n        string receivingOffice, \r\n        string receivingCountry, \r\n        uint estimatedValue, \r\n        string serviceLine,\r\n        uint dateCreated) {\r\n        address newContract = new Referral(client, engagement, referringOffice, referringCountry, receivingOffice, receivingCountry, estimatedValue, serviceLine, dateCreated);\r\n        referralContracts.push(newContract);\r\n        contractCount++; \r\n    } \r\n\r\n    function getContract(uint index) public constant returns(address _addr) {\r\n        return referralContracts[index]; \r\n    }\r\n\r\n    function getContracts() public constant returns(address[] _addr) {\r\n        return referralContracts; \r\n    }\r\n\r\n    function getNumberOfContracts() public constant returns(uint _numberOfContract){\r\n        return contractCount; \r\n    }\r\n}\r\n\r\n    // function getContracts() public returns(address[]) {\r\n    //     return referralContracts; \r\n    // }",
  "sourcePath": "C:\\Users\\tireilly\\GitHub\\python-warmup\\truff-n-stuff\\contracts\\ReferralFactory.sol",
  "compiler": {
    "name": "solc",
    "version": "0.4.19+commit.c4cbbb05.Emscripten.clang"
  },
  "schemaVersion": "2.0.0",
  "updatedAt": "2018-04-03T18:00:59.818Z"
}